:100000000C9422310C9453310C9453310C94533191
:100010000C9453310C9453310C9453310D946F0F55
:100020000C9453310C9453310C9453310C94533140
:100030000C9453310C9453310C9453310D9495AE70
:100040000C9453310C9453310C9453310C94533120
:100050000C9453310C9453310C9453310D94581A21
:100060000C9453310D9418100D9447100C94533187
:100070000C9453310C9453310C9453310C945331F0
:100080000C9453310C9453310C9453310C945331E0
:100090000D9482100D94B1100C9453310D9464148E
:1000A0000C9453310D94C2AE0C9453310C945331D3
:1000B0000C9453310C9453310D94EFAE0C94533196
:1000C0000C9453310C9453310C9453310D94EC1027
:1000D0000D941B110C9453310C9453310C945331E7
:1000E0000C94533146374D3754375B376237693795
:1000F00070377737943794377E3785378C37F149A7
:10010000EC49EA49F149F149EA49EA49EA49EF4942
:10011000EF49EC49EC49EC49EF49EF49EC49EE492C
:1001200020531B53135309531B530E530E53285381
:100130002853205320532053285328532053535BD4
:100140003A5B295B5A59E9592E5ADF5AE45A6E5BD9
:100150006E5BFE57575957596E5B6E5B5759AA72C3
:10016000C272C972B272BA72D1721D73FF72F87222
:10017000F07207730E731573E072E87236732573AD
:1001800047734E7355735C73617367735894C99367
:1001900058945894A9935894B893AE934D944D9411
:1001A000DA93299433944D944D944894589450A2E2
:1001B00064A268A270A274A2BDAF78A2BDAFBDAFA9
:1001C000BDAF7CA280A284A21D2F852F692DED2CAE
:1001D000DB309B305B2E8F2E1530152D3D2D072FDC
:1001E000A330752F9F308530F72D572E3B2EB72F1C
:1001F0007D2D2B2E4D30132D7D2F612E4130413022
:10020000353035303530E92DE92DE92D472F1531C1
:1002100015314F2DB12F4F2FB12E812FC32D972E7A
:10022000DD30572DF530712E1B2D072E5D2E8130C0
:10023000092E632F452FBF2D4B2F5F2E892E552F53
:10024000392D0D31C1309F2D792F4B2ED52E4D2FAD
:10025000632D412F9730DD2D9B2EA5307B2E172E41
:10026000E52D3730C9301D3005305B2F5D308F2FC5
:10027000EF30ED2DBD300330AD305F30A32D7F2E3C
:10028000F12DE530132F3B2D732DCD30632E3B30F8
:100290005930BF30DF2C392FA52EE12E1B2E692FB0
:1002A0002130812E6F2EFF2C772D872E172F892D31
:1002B000432F132E8D306D2F492E8D306D2F492EEB
:1002C0008D306D2F492E0131A12FA12F0131013128
:1002D000A12FA12F0131013101310131B92EDB2CC8
:1002E000A32FB12DA32FA32F592DD32DA32FA32F90
:1002F0007130D530F52DA32FA32FA32FA32FA32F1C
:10030000A32FA32FA32FA32FA32FA32F432DA32FBF
:10031000A32FA32FA32FA32FA32FA32F5F2F192D1D
:10032000A32FFB2C992DA32F57304530A32FA32F9C
:10033000A32FA32FB72ECB2DCB2D8D2EE52ECF3077
:10034000512F972F992F912FAD2F036EDB363D9AAA
:100350009999993DABAAAA2A3E000000803F084A1D
:10036000D73B3BCE016E84BCBFFDC12F3D6C7431C9
:100370009ABD56833DDA3D00C77F11BED9E4BB4C20
:100380003E916BAAAABE000000803F072C7AA5BA56
:100390006CC590DA3B9365FC8BBC53F810FD3C5662
:1003A00092834DBD879D3AB63DCBC9BF5BBE73DA24
:1003B0000FC93F05A84CCDB2D44EB93836A9020CAE
:1003C00050B9918688083CA6AAAA2ABE00000080DF
:1003D0003F08000000BE922449123EABAAAA2ABEE2
:1003E000CDCCCC4C3E00000080BEABAAAAAA3E00F9
:1003F000000000BF000000803F0000000000084136
:1004000078D3BB4387D1133D190E3CC3BD4282ADA7
:100410002B3E68EC8276BED98FE1A93E4C80EFFF7F
:10042000BE01C4FF7F3F00000000000664EC1B3CDF
:1004300004BC163E3BE5B93CC93C37C29E5A3D66FA
:100440000498083EEA69AAAA3E000000803F020024
:100450005241575F53454E5300000000000000001A
:100460000068000000803F02014558545F5354412A
:10047000540000000000000000006A000000803FFF
:10048000020252435F4348414E000000000000005A
:100490000000006C000000803F02035241575F43A0
:1004A00054524C0000000000000000006E000000EC
:1004B000803F0204504F534954494F4E0000000002
:1004C000000000000070000000803F020545585405
:1004D00052413100000000000000000000007200E6
:1004E0000000803F0206455854524132000000008F
:1004F0000000000000000074000000803F0207457B
:100500005854524133000000000000000000000079
:1005100076000000803F0208504152414D530000D8
:1005200000000000000000000078000000204100F2
:10053000FF000000000000000000000000000000BC
:10054000000000000000000002464F524D41545F81
:1005500056455253494F4E000000008209000000EA
:10056000000153595349445F53575F545950450054
:10057000000000018409000000000253595349445F
:100580005F544849534D41560000000070850900F2
:1005900000803F0253595349445F4D59474353002C
:1005A000000000000071870900007F43015345529D
:1005B00049414C305F4241554400000000007489BD
:1005C000090000E6420153455249414C335F424124
:1005D00055440000000000728A0900006442015482
:1005E000454C454D5F44454C41590000000000001A
:1005F000738B0900000000044B46465F524444528E
:100600004D4958000000000000C98C090000003F5F
:10061000044B46465F544852325054434800000051
:100620000000CB94090000000001535449434B5F84
:100630004D4958494E47000000000019240A0000A7
:10064000803F01534B49505F4759524F5F43414CE4
:10065000000000002F9E0900000000014155544F8A
:100660005F4642575F5354454552000000309F0992
:100670000000000004544B4F46465F5448525F4D03
:10068000494E5350440022250A0000000004544BF8
:100690004F46465F5448525F4D494E414343002305
:1006A000290A0000000001544B4F46465F5448524F
:1006B0005F44454C415900002E2D0A000000000106
:1006C0004C4556454C5F524F4C4C5F4C494D49543C
:1006D00000252E0A0000A040024C414E445F5049C4
:1006E0005443485F43440000000017F8090000002D
:1006F00000044C414E445F464C4152455F414C54CE
:100700000000001BFA0900004040044C414E445FC9
:10071000464C4152455F5345430000001CFE090012
:10072000000040014E41565F434F4E54524F4C4CD7
:100730004552000000289C090000803F04414C54B1
:100740005F4D49580000000000000000000083A039
:10075000090000803F01414C545F4354524C5F41BB
:100760004C4700000000007CA4090000000002418A
:100770004C545F4F464653455400000000000000B3
:1007800020D9090000000001434D445F544F5441FB
:100790004C0000000000000000DDA6090000000081
:1007A00001434D445F494E4445580000000000009D
:1007B0000000DEA709000000000257505F524144CC
:1007C0004955530000000000000000DFA8090000A8
:1007D000F0410257505F4D41585F524144495553D3
:1007E0000000000031AA09000000000257505F4CD1
:1007F0004F495445525F52414400000000E0AC09AB
:10080000000070420146454E43455F414354494F05
:100810004E0000000000E1AE090000000001464566
:100820004E43455F544F54414C000000000000E22D
:10083000AF09000000000146454E43455F43484173
:100840004E4E454C00000000E3B0090000000002DD
:1008500046454E43455F4D494E414C540000000013
:1008600000E4B109000000000246454E43455F4DDB
:100870004158414C540000000000E5B3090000005D
:10088000000241525350445F4642575F4D494E006B
:1008900000000078790B000010410241525350448F
:1008A0005F4642575F4D415800000000797B0B00C6
:1008B00000B04101464257425F454C45565F5245A4
:1008C00056000000007BB5090000000001464257B9
:1008D000425F434C494D425F5241544500007DB652
:1008E0000900000040015448525F4D494E0000008D
:1008F00000000000000000B5750B0000000001546E
:1009000048525F4D41580000000000000000000008
:10091000B6760B00009642015448525F534C45573F
:10092000524154450000000000BD770B0000C84252
:10093000015448525F535550505F4D414E000000E6
:100940000000BEB70900000000015448525F50414A
:1009500053535F5354414200000000BFB8090000E8
:100960000000015448525F4641494C5341464500FE
:1009700000000000B7B9090000803F025448525FF0
:1009800046535F56414C55450000000000B8BA0977
:1009900000806D44015452494D5F5448524F5454A5
:1009A0004C4500000000B9780B0000344201544867
:1009B000524F54544C455F4E554447450000001F6C
:1009C000BC090000803F0146535F53484F52545FBB
:1009D0004143544E00000000BABD0900000000046D
:1009E00046535F53484F52545F54494D454F5554F9
:1009F00000C3BF090000C03F0146535F4C4F4E4744
:100A00005F4143544E0000000000BBBE09000000DF
:100A1000000446535F4C4F4E475F54494D454F5578
:100A2000540000C4C3090000A0410446535F424182
:100A300054545F564F4C544147450000C1C809000B
:100A40000000000446535F424154545F4D4148004A
:100A50000000000000C2CC09000000000146535F06
:100A60004743535F454E41424C0000000000BCC765
:100A7000090000000001464C544D4F44455F434877
:100A800000000000000000D2D00900000041014633
:100A90004C544D4F44453100000000000000000060
:100AA000D3D1090000304101464C544D4F444532EA
:100AB000000000000000000000D4D2090000304116
:100AC00001464C544D4F44453300000000000000E7
:100AD0000000D5D3090000A04001464C544D4F44BE
:100AE0004534000000000000000000D6D4090000DA
:100AF000A04001464C544D4F4445350000000000D5
:100B000000000000D7D5090000000001464C544DFC
:100B10004F444536000000000000000000D8D60910
:100B200000000000024C494D5F524F4C4C5F434463
:100B300000000000000098D70900A08C45024C4935
:100B40004D5F50495443485F4D41580000000099A3
:100B50007D0B0080BB44024C494D5F5049544348D3
:100B60005F4D494E000000009A7F0B00401CC502FB
:100B70004143524F5F524F4C4C5F5241544500002D
:100B8000007EDB0900003443024143524F5F50496D
:100B90005443485F5241544500007FDD0900003452
:100BA00043015452494D5F4155544F00000000002D
:100BB0000000000ADF090000000001454C45564FC7
:100BC0004E5F4D4958494E47000000000DE00900B6
:100BD00000000001454C45564F4E5F524556455268
:100BE00053450000000EE7090000000001454C4598
:100BF000564F4E5F4348315F5245560000000FE8A4
:100C0000090000000001454C45564F4E5F434832F5
:100C10005F52455600000010E9090000000001562F
:100C20005441494C5F4F555450555400000000004A
:100C300027E1090000000001454C45564F4E5F4F2B
:100C400055545055540000000029E20900000000EE
:100C5000044D4958494E475F4741494E0000000046
:100C600000002BE3090000003F025359535F4E552B
:100C70004D5F52455345545300000002EA090000FD
:100C80000000024C4F475F4249544D41534B000016
:100C9000000000000BEC09000002C3015253545F36
:100CA0005357495443485F43480000000015EE097C
:100CB00000000000015253545F4D495353494F4EB9
:100CC0005F43480000001AEF09000000000354527F
:100CD000494D5F41525350445F434D000000009B1B
:100CE000F00900009644045343414C494E475F537A
:100CF0005045454400000000CC98090000704103B5
:100D00004D494E5F474E445350445F434D000000F1
:100D1000009E020A00000000025452494D5F5049F3
:100D20005443485F4344000000000C060A000000E2
:100D30000003414C545F484F4C445F52544C0000F8
:100D40000000009CF40900401C4602414C545F48DE
:100D50004F4C445F464257434D0000007A080A005A
:100D6000000000014D41475F454E41424C450000A7
:100D70000000000000840A0A0000803F01464C4148
:100D8000505F315F504552434E5400000000110C3B
:100D90000A0000000001464C41505F315F5350454E
:100DA00045440000000000120D0A0000000001464A
:100DB0004C41505F325F504552434E54000000009A
:100DC000130E0A0000000001464C41505F325F5391
:100DD000504545440000000000140F0A00000000C8
:100DE00001424154545F4D4F4E49544F5200000050
:100DF0000000860B0A0000000004564F4C545F446C
:100E0000495649444552000000000087100A0AD79D
:100E1000634004414D505F5045525F564F4C540063
:100E20000000000088140A5C8FDA4104414D505FD5
:100E30004F4646534554000000000000008F180A3A
:100E40000000000003424154545F43415041434974
:100E50005459000000008A1C0A0000DC4401424191
:100E600054545F564F4C545F50494E00000000A848
:100E7000210A0000803F01424154545F43555252C1
:100E80005F50494E00000000A9220A000000400106
:100E9000525353495F50494E0000000000000000CB
:100EA00000A7200A000080BF01494E564552544514
:100EB00044464C545F43480000009D230A00000054
:100EC0000008474E445F00000000000000000000E2
:100ED0000000008D810BB63200000843414D5F00D9
:100EE000000000000000000000000000A0060CF957
:100EF0003500000852454C41595F000000000000D9
:100F000000000000002D230C9D51000008524331C9
:100F10005F00000000000000000000000000AA2F99
:100F20000AB4560000085243325F0000000000007F
:100F300000000000000000AB4C0AB456000008524C
:100F400043335F00000000000000000000000000CC
:100F5000AC690AB4560000085243345F0000000038
:100F6000000000000000000000AD860AB45600003A
:100F7000085243355F000000000000000000000040
:100F80000000AEA30A69560000085243365F000015
:100F90000000000000000000000000AFC10A695618
:100FA0000000085243375F0000000000000000000E
:100FB00000000000B0DF0A69560000085243385FA5
:100FC00000000000000000000000000000B1FD0A69
:100FD0006956000008524331305F000000000000F5
:100FE000000000000000B31B0B69560000085243CC
:100FF00031315F000000000000000000000000B47C
:10100000390B6956000008574845454C535445452F
:10101000525F000000000000F7570BEC550000087D
:10102000524C4C325352565F00000000000000004A
:1010300000E8240CC82F0000085054434832535293
:10104000565F0000000000000000E9480CE72E0099
:101050000008594157325352565F0000000000000B
:10106000000000EA720C7730000008434F4D5041F9
:1010700053535F00000000000000000085A40CAF87
:101080003600000853434845445F0000000000005C
:1010900000000000002C860DCF5100000852434D87
:1010A00041505F0000000000000000000000EC99CB
:1010B0000D20510000085352305F00000000000076
:1010C000000000000000006E9D0D4E04000008535B
:1010D00052335F000000000000000000000000002C
:1010E0006F250E4E04000008494E535F00000000BB
:1010F00000000000000000000021E906B8420000E6
:1011000008414852535F000000000000000000004A
:1011100000008C35070D3100000841525350445FE8
:1011200000000000000000000000008EB40807323C
:101130000000084E41564C315F00000000000000E6
:1011400000000000EBAD0E6B4E0000085445435309
:101150005F000000000000000000000000EDD20E63
:1011600049520000084D4E545F000000000000008E
:10117000000000000000A11709FE4E000000000062
:10118000000000000000000000000000000000005F
:101190000000000000004C6F670064756D70000077
:1011A00000000000000000000D41657261736500E1
:1011B0000000000000000000B287656E61626C658F
:1011C0000000000000000000DB3F64697361626C96
:1011D0006500000000000000DB3F7365747570005F
:1011E0007265736574000000000000000000893F14
:1011F000726164696F000000000000000000F9796E
:101200006D6F646573000000000000000000077946
:101210006C6576656C000000000000000000A0878F
:10122000616363656C0000000000000000000D5C5D
:10123000636F6D7061737300000000000000405721
:101240006465636C696E6174696F6E000000E056DE
:1012500062617474657279000000000000005B55E3
:1012600073686F77000000000000000000002C3F52
:1012700073657400000000000000000000002854A6
:101280006572617365000000000000000000B93560
:1012900041726475506C616E652056322E3735622E
:1012A00065746132006C6F6773000000000000001D
:1012B000000000263F736574757000000000000098
:1012C000000000033F74657374000000000000001C
:1012D000000000E03E7265626F6F74000000000065
:1012E000000000B33668656C70000000000000006C
:1012F0000000009436746573740070776D00000010
:1013000000000000000000007D78726164696F00D9
:101310000000000000000000448270617373746874
:101320007275000000000000A8666661696C736158
:1013300066650000000000004977626174746572A0
:101340007900000000000000239672656C6179004E
:1013500000000000000000002866776179706F6966
:101360006E74730000000000AE677862656500006F
:101370000000000000000000CD65656564756D70BB
:101380000000000000000000F6396D6F646573779F
:1013900069746368000000002967677073000000CB
:1013A00000000000000000002C6572617767707318
:1013B00000000000000000007771696E73000000FB
:1013C00000000000000000009A6C61697273706593
:1013D00065640000000000004F86616972707265EC
:1013E00073737572650000006985636F6D7061735A
:1013F0007300000000000000B26D6C6F6767696EDB
:101400006700000000000000B939736176696E67FB
:10141000206F66667365747300636F6D70617373BC
:10142000206E6F74206865616C746879004865612E
:1014300064696E673A20256C642C2058595A3A200A
:1014400025642C2025642C2025642C0958595A6FBA
:1014500066663A2025362E32662C2025362E3266D8
:101460002C2025362E32660A00436F6D706173732F
:1014700020696E697469616C69736174696F6E204B
:101480006661696C65642100436F6D706173733AC6
:10149000200061626C65640A0064697300656E0017
:1014A0004D6167206F6666736574733A2025342E2C
:1014B00034662C2025342E34662C2025342E3466B8
:1014C0000A004D6167204465636C696E6174696FE1
:1014D0006E3A2025342E34660A003F3F0048494CBE
:1014E00000484D433538343300484D4335383833A0
:1014F0004C00436F6D706173733A20002D00486992
:101500007420456E74657220746F20657869742E3E
:101510000A0A00416C743A2025302E32666D2C2068
:101520005261773A2025662054656D70657261744A
:101530007572653A20252E31660A006E6F74206838
:1015400065616C74687900556E63616C6962726183
:101550007465642072656C61746976652061697276
:1015600070726573737572650A006261726F6D6582
:101570007465722063616C6962726174696F6E2058
:10158000636F6D706C6574650043616C6962726154
:1015900074696E67206261726F6D65746572002593
:1015A0002E3166206D2F730A006169727370656554
:1015B000643A200061697273706565643A20007A4C
:1015C00065726F2061697273706565642063616C18
:1015D0006962726174656400723A25346420207017
:1015E0003A2534642020793A2533642020673D2849
:1015F00025352E31662025352E31662025352E31B4
:1016000066292020613D2825352E31662025352E7E
:1016100031662025352E3166290A002E004C617472
:101620003A20256C642C204C6F6E20256C642C2095
:10163000416C743A20256C646D2C202373617473A3
:101640003A2025640A00506F736974696F6E202513
:10165000640A00436F6E74726F6C20434820002050
:101660002530327800253034783A00426567696E5B
:10167000205842656520582D4354552052616E67AD
:101680006520616E64205253534920546573743A47
:101690000A004C6F69746572207261646975733AEF
:1016A0002025640A0A0048697420726164697573B0
:1016B0003A2025640A00256420776179706F696E8D
:1016C00074730A00486F6C6420616C74697475648B
:1016D00065206F662025646D0A00486F6C64206386
:1016E000757272656E7420616C7469747564650AD4
:1016F00000636F6D6D616E6420233A20256420695C
:10170000643A2564206F7074696F6E733A256420A3
:1017100070313A25642070323A256C642070333A77
:10172000256C642070343A256C64200A0052656C84
:101730006179206F66660A0052656C6179206F6E70
:101740000A004E6F7420656E61626C65640A005613
:101750003A2025342E34662C20413A2025342E346C
:10176000662C206D41683A2025342E34660A0056D6
:101770003A2025342E34660A004D53472046532024
:101780004F4646202575004D5347204653204F4E67
:1017900020257500486F6C64696E6720636F7572F1
:1017A000736520256C6400547269676765726564AF
:1017B000204155544F2078616363656C3D252E317F
:1017C00066004C4F5320636175736564206E6F2013
:1017D0006368616E676520696E2041504D2E0A0076
:1017E0005448524F54544C45204641494C5341466D
:1017F00045204143544956415445443A2025642CE0
:101800002000434F4E54524F4C204D4F44452043EF
:1018100048414E4745443A20005448524F54544C96
:1018200045204348414E474544202564200A005541
:101830006E706C756720626174746572792C2074A7
:1018400068726F74746C6520696E206E6575747251
:10185000616C2C207475726E206F666620726164F4
:10186000696F2E0A004D6F646528257529004C6F3D
:10187000697465720052544C004155544F004352F4
:1018800055495345004642575F42004642575F4123
:10189000004143524F00547261696E696E67005394
:1018A000746162696C697A6500436972636C650092
:1018B0004D616E75616C0043483A002C00494E2022
:1018C000313A20256409323A20256409333A20252B
:1018D0006409343A20256409353A20256409363AEA
:1018E00020256409373A20256409383A2025640AFE
:1018F00000494E3A09313A20256409323A202564DC
:1019000009333A20256409343A20256409353A2000
:10191000256409363A20256409373A2025640938B8
:101920003A2025640A00436F6D6D616E64733A0A54
:1019300020206C6F677320202020202020206C6FD7
:101940006720726561646261636B2F736574757083
:10195000206D6F64650A20207365747570202020E7
:10196000202020207365747570206D6F64650A20D7
:10197000207465737420202020202020207465733B
:1019800074206D6F64650A20207265626F6F742029
:1019900020202020207265626F6F7420746F206693
:1019A0006C69676874206D6F64650A0A005465731A
:1019B00074204D6F64650A0A005365747570204D7C
:1019C0006F64650A0A494D504F5254414E543A20B3
:1019D000696620796F752068617665206E6F742066
:1019E00070726576696F75736C7920736574207495
:1019F0006869732073797374656D2075702C207518
:101A00007365207468650A2772657365742720639F
:101A10006F6D6D616E6420746F20696E69746961A9
:101A20006C697A652074686520454550524F4D2099
:101A3000746F2073656E7369626C6520646566619E
:101A4000756C742076616C7565730A616E642074C0
:101A500068656E207468652027726164696F27204D
:101A6000636F6D6D616E6420746F20636F6E666965
:101A70006775726520666F7220796F75722072616A
:101A800064696F2E0A0A000A547970652027592765
:101A900020616E642068697420456E7465722074DC
:101AA0006F20657261736520616C6C20776179705D
:101AB0006F696E7420616E6420706172616D65740F
:101AC000657220646174612C20616E79206F746886
:101AD0006572206B657920746F2061626F72743A51
:101AE0002000646F6E650A000A45726173696E6753
:101AF00020454550524F4D0A0043616E6E6F742071
:101B000073657420706172616D65746572206F66B3
:101B100020747970652025642E0A0056616C756505
:101B2000206F7574206F662072616E676520666F26
:101B300072207479706520494E5431360A0056611E
:101B40006C7565206F7574206F662072616E6765B5
:101B500020666F72207479706520494E54380A00EF
:101B6000506172616D206E6F7420666F756E643A9D
:101B70002025730A00496E76616C696420636F6D7D
:101B80006D616E642E2055736167653A20736574CC
:101B9000203C6E616D653E203C76616C75653E0A49
:101BA00000506172616D65746572206E6F7420669D
:101BB0006F756E643A20272573270A000A4F7074E8
:101BC000696F6E733A20332D34004D6F6E69746FF8
:101BD00072696E6720766F6C747320616E64206327
:101BE000757272656E74004D6F6E69746F72696E96
:101BF00067206261747420766F6C74730042617444
:101C000074206D6F6E69746F72696E67206469739A
:101C100061626C65640042617474204D6F696E741A
:101C20006F720A000A4F7074696F6E733A5B6F6E61
:101C30002C6F66662C72657365745D0A007265733D
:101C40006574006F666600436F6D70617373206921
:101C50006E697469616C69736174696F6E20666125
:101C6000696C656421006F6E00496E697469616C0E
:101C70006973696E67206779726F7300494E530A02
:101C8000004779726F206F6666736574733A20251A
:101C9000342E32662C2025342E32662C2025342E0C
:101CA00032660A00416363656C206F666673657413
:101CB000733A2025342E32662C2025342E32662CA1
:101CC0002025342E3266097363616C653A20253411
:101CD0002E32662C2025342E32662C2025342E32CE
:101CE000660A004E4F206169727370656564004238
:101CF0006567696E6E696E6720494E532063616C3B
:101D00006962726174696F6E3B20646F206E6F74DC
:101D1000206D6F766520706C616E65005761726D25
:101D2000696E67207570204144432E2E2E00446555
:101D30006D6F20536572766F7321000A4D6F766563
:101D400020524320746F67676C65207377697463F2
:101D50006820746F206561636820706F73697469AF
:101D60006F6E20746F20656469742C206D6F7665CA
:101D70002061696C65726F6E20737469636B207487
:101D80006F2073656C656374206D6F6465732E00DE
:101D9000506F732025643A2000466C696768742090
:101DA0006D6F6465730A000A53617665642053653C
:101DB0007474696E67730A0A000A4D6F7665206154
:101DC0006C6C20636F6E74726F6C7320746F20651F
:101DD0006163682065787472656D652E204869744A
:101DE00020456E74657220746F20736176653A20A9
:101DF0000A000A4E6F20726164696F3B2043686578
:101E0000636B20636F6E6E6563746F72732E000A6E
:101E10000A526164696F2053657475703A0A005202
:101E20006164696F0A004348383A202564207C20A9
:101E30002564207C2025640A004348373A20256425
:101E4000207C202564207C2025640A004348363A03
:101E5000202564207C202564207C2025640A004302
:101E600048353A202564207C202564207C20256488
:101E70000A004348343A202564207C202564207CD5
:101E80002025640A004348333A202564207C20251D
:101E900064207C2025640A004348323A20256420CF
:101EA0007C202564207C2025640A004348313A20A8
:101EB0002564207C202564207C2025640A000A46B5
:101EC0004143544F525920524553455420636F6D3E
:101ED000706C657465202D20706C6561736520726F
:101EE000657365742041504D20746F20636F6E746C
:101EF000696E7565000A547970652027592720613D
:101F00006E642068697420456E74657220746F2059
:101F1000706572666F726D20666163746F7279208E
:101F200072657365742C20616E79206F74686572B8
:101F3000206B657920746F2061626F72743A2000A3
:101F4000656E61626C6500414952535044005243D2
:101F5000490052434F0043414D45524100544543CF
:101F60005300434F4D504153530043555252454E39
:101F70005400434D4400494D55004D4F4445004EDB
:101F800054554E004354554E00504D004750530099
:101F900041545449545544455F4D454400415454BF
:101FA00049545544455F4641535400616C6C006D83
:101FB000697373696E67206C6F6720747970650A46
:101FC000004C6F6720657261736520636F6D706C84
:101FD0006574650045726173696E67206C6F677325
:101FE00000626164206C6F67206E756D6265720AB5
:101FF0000064756D70696E6720616C6C0A008059B1
:10200000464D54000042426E4E5A0000000000004F
:102010000000000000547970652C4C656E67746890
:102020002C4E616D652C466F726D6174000000006E
:1020300000000000000000000000000000000000A0
:102040000000000000000000000000000000000090
:10205000000000000081175041524D004E66000004
:102060000000000000000000000000004E616D65EF
:102070002C56616C75650000000000000000000037
:102080000000000000000000000000000000000050
:102090000000000000000000000000000000000040
:1020A00000000000000000000000000082234750F4
:1020B000530000424942634C4C6565456500000091
:1020C0000000005374617475732C54696D652C4E57
:1020D000536174732C48446F702C4C61742C4C6E9B
:1020E000672C52656C416C742C416C742C53706479
:1020F0002C47437273000000000000000000000045
:10210000000000831B494D550000666666666666E2
:1021100000000000000000000000477972582C47C2
:102120007972592C4779725A2C416363582C416358
:1021300063592C4163635A00000000000000000056
:10214000000000000000000000000000000000008F
:102150000000000000000000000084434D534700D1
:10216000005A000000000000000000000000000015
:10217000004D65737361676500000000000000009A
:10218000000000000000000000000000000000004F
:10219000000000000000000000000000000000003F
:1021A000000000000000000000000000000000002F
:1021B000000A09415454000063634300000000001A
:1021C0000000000000000000526F6C6C2C5069741D
:1021D00063682C59617700000000000000000000D7
:1021E00000000000000000000000000000000000EF
:1021F00000000000000000000000000000000000DF
:1022000000000000000000000315504D00000049D0
:102210004868424242686868684200000000004C1A
:1022200054696D652C4D4C432C6744742C524E43BD
:102230006E742C524E426C2C475053636E742C4774
:1022400044782C4744792C47447A2C4932434572D0
:102250007200000000000000000000000000000408
:1022600014434D4400004242424242654C4C00003F
:1022700000000000000043546F742C434E756D2C19
:102280004349642C434F70742C50726D312C416C57
:10229000742C4C61742C4C6E670000000000000030
:1022A000000000000000000000000000000000002E
:1022B000000000000000091943414D0000494C4C4A
:1022C00065636343000000000000000000475053B6
:1022D00054696D652C4C61742C4C6E672C416C7488
:1022E0002C526F6C6C2C50697463682C59617700A8
:1022F00000000000000000000000000000000000DE
:10230000000000000000000000000000000605536F
:10231000545254004242000000000000000000003F
:102320000000000053547970652C43546F74000012
:10233000000000000000000000000000000000009D
:10234000000000000000000000000000000000008D
:10235000000000000000000000000000000000007D
:102360000000000001134354554E0063636363682B
:1023700068660000000000000000004E6176526FA9
:102380006C6C2C526F6C6C2C4E6176506974636867
:102390002C50697463682C5468724F75742C5264A5
:1023A000724F75742C4163635900000000000000F7
:1023B000000000000000000000000002114E545513
:1023C0004E004349434363630000000000000000E7
:1023D00000005961772C5770446973742C546172F2
:1023E000674272672C4E61764272672C416C74456D
:1023F00072722C41727370640000000000000000D3
:1024000000000000000000000000000000000000CC
:1024100000000B054D4F4445004D420000000000F8
:102420000000000000000000004D6F64652C4D6F3F
:1024300064654E756D0000000000000000000000A3
:10244000000000000000000000000000000000008C
:10245000000000000000000000000000000000007C
:10246000000000000000000000050F43555252001C
:102470006868684866000000000000000000000076
:102480005468722C566F6C742C437572722C5663A0
:10249000632C43757272546F7400000000000000DA
:1024A000000000000000000000000000000000002C
:1024B000000000000000000000000000000000001C
:1024C0000C154D414700006868686868686868686E
:1024D000000000000000004D6167582C4D616759F5
:1024E0002C4D61675A2C4F6673582C4F6673592CCC
:1024F0004F66735A2C4D4F6673582C4D4F66735967
:102500002C4D4F66735A00000000000000000000D0
:10251000000000000000000E0B52434F00006868EE
:10252000686800000000000000000000000054681F
:10253000724F75742C5069744F75742C526F6C4FB8
:1025400075742C5275644F75740000000000000013
:10255000000000000000000000000000000000007B
:1025600000000000000000000000000000000F0B51
:1025700052434900006868686800000000000000DD
:102580000000000000546872496E2C506974496E56
:102590002C526F6C496E2C527564496E000000001D
:1025A000000000000000000000000000000000002B
:1025B000000000000000000000000000000000001B
:1025C000000000000010054153504400630000006B
:1025D00000000000000000000000000041495253CC
:1025E0005044000000000000000000000000000057
:1025F00000000000000000000000000000000000DB
:1026000000000000000000000000000000000000CA
:102610000000000000000000000000000D335445E1
:10262000435300666666666666666666666666004C
:10263000000000682C64682C685F64656D2C646819
:102640005F64656D2C73705F64656D2C73702C64B2
:1026500073702C6974682C6970682C74682C7068AD
:102660002C6473705F64656D000000000000000062
:1026700000000041504D2032000A41726475506CD8
:10268000616E652056322E373562657461320A46B6
:102690007265652052414D3A2025750A0041495224
:1026A0005350440020255300524349002025530035
:1026B00052434F002025530043414D4552410020D5
:1026C000255300544543530020255300434F4D509C
:1026D000415353002025530043555252454E540058
:1026E00020255300434D440020255300494D5500FB
:1026F000202553004D4F444500202553004E54558E
:102700004E00202553004354554E002025530050C1
:102710004D002025530047505300202553004154BD
:102720005449545544455F4D4544002025530041CC
:10273000545449545544455F464153540020255351
:10274000006E6F6E65006C6F677320656E61626C02
:1027500065643A20004C6F77204261747465727929
:1027600020252E326656205573656420252E30664E
:10277000206D41680052657475726E696E672074D1
:102780006F20486F6D6500457865637574696E6785
:10279000206E617620636F6D6D616E642049442008
:1027A00023256900526573657474696E67207072C1
:1027B00065765F575000283229204E6F6E2D4E618E
:1027C0007620636F6D6D616E64204944207570647E
:1027D0006174656420746F20232569206964783DE5
:1027E0002575004E6F6E2D4E617620636F6D6D61A5
:1027F0006E64204944207570646174656420746F50
:1028000020232569206964783D2575006F75742043
:102810006F6620636F6D6D616E647321004E61762B
:1028200020636F6D6D616E6420696E6465782075DC
:1028300070646174656420746F2023256900457895
:1028400065637574696E6720636F6D6D616E64207A
:1028500049442023256900444F5F5345545F524F3C
:1028600049206E6F7420737570706F7274656400A8
:10287000457865637574696E6720636F6D6D616E11
:1028800064204944202325690073657474696E6768
:1028900020636F6D6D616E6420696E6465783A20A7
:1028A0002569004A756D7020746F2057502025757A
:1028B0002E204A756D7073206C6566743A2025640D
:1028C00000536B697070696E6720696E76616C6920
:1028D00064206A756D7020746F202569004A756DDB
:1028E0007073206C6566743A2030202D20736B69FC
:1028F0007070696E6700536574207468726F7474C9
:102900006C65202575005365742067726F756E6461
:102910007370656564202575005365742061697264
:102920007370656564202575206D2F730052656C8A
:10293000617920746F67676C650052656C617920FE
:102940006F66660052656C6179206F6E0052656C2F
:10295000617920746F67676C65005265636569769D
:1029600065642052657175657374202D206A756DDC
:102970007020746F20636F6D6D616E642023256914
:102980000043616E6E6F74206368616E67652074CA
:102990006F206E6F6E2D4E617620636D64202575FD
:1029A000005265636569766564205265717565736B
:1029B00074202D207265736574206D697373696F5F
:1029C0006E0067707320616C743A20256C75006925
:1029D0006E697420686F6D65006261642066656E63
:1029E000636520706F696E74006261642066656E55
:1029F000636520706F696E740066656E63696E67EB
:102A0000206D7573742062652064697361626C6502
:102A10006400666C6967687420706C616E20726512
:102A200063656976656400666C6967687420706CBC
:102A3000616E207570646174652072656A65637487
:102A4000656400556E6B6E6F776E20706172616D9C
:102A50006574657220252E31367300556E6B6E6F6E
:102A6000776E20706172616D6574657220696E6445
:102A7000657820256400636F6D6D616E64207265FA
:102A80006365697665643A2000666C6967687420DE
:102A90006D6F6465203D202575004661696C73612A
:102AA0006665202D2053686F7274206576656E749C
:102AB000206F6E2C20004661696C73616665202D65
:102AC0002053686F7274206576656E74206F666639
:102AD00000873501008403D8570100E803235E0115
:102AE00000800CFA7C01004C04189A0700E80304EB
:102AF000B30500A00F81880500C012575D0500DCFA
:102B000005D33A0500DC0589A00500480DC84F052E
:102B100000E803A4990500581BE7330500E80342C9
:102B2000B10100A406B5840100B80B684E0100DCB9
:102B300005F2820F00DC0511720500E803C8940558
:102B400000E8035F4E0100DC05E633010084035B0F
:102B50004E01006400D6B132003C0FA8980F00E887
:102B6000031D4D3200E80320460500B004A93C05D2
:102B700000E803666C69676874206D6F6465203DCA
:102B8000202575004661696C73616665202D204CB7
:102B90006F6E67206576656E74206F6E2C2000491D
:102BA0006E76616C69642053455249414C335F42F3
:102BB0004155440067656F2D66656E6365207472CC
:102BC000696767657265640067656F2D66656E632A
:102BD00065204F4B0067656F2D66656E63652073DA
:102BE00065747570206572726F720067656F2D660F
:102BF000656E6365206C6F616465640076657269FB
:102C000066795F6E61763A20496E76616C69642000
:102C10006F72206E6F2063757272656E74204E61E4
:102C20007620636D6400486F6C64696E6720636F23
:102C30007572736520256C64004C616E6420436F6F
:102C40006D706C657465202D20486F6C6420636F17
:102C50007572736520256C64005061737365642020
:102C6000576179706F696E742023256920646973D8
:102C7000742025756D005265616368656420576135
:102C800079706F696E7420232569206469737420DC
:102C900025756D007665726966795F6E61763A209A
:102CA0004C4F49544552206F726269747320636FB0
:102CB0006D706C657465007665726966795F6E61CA
:102CC000763A204C4F495445522074696D65206313
:102CD0006F6D706C65746500526561636865642032
:102CE000686F6D65007665726966795F636F6E64A3
:102CF00069746F6E3A20496E76616C6964206F72F8
:102D0000206E6F2063757272656E7420436F6E64FF
:102D10006974696F6E20636D64000A507265737325
:102D200020454E54455220332074696D65732074DC
:102D30006F20737461727420696E7465726163745C
:102D40006976652073657475700A00436F6D7061F4
:102D5000737320696E697469616C69736174696FFA
:102D60006E206661696C6564210045524153494E8D
:102D700047204C4F4753004E6F2064617461666C6E
:102D8000617368206361726420696E736572746533
:102D900064000A0A496E69742041726475506C615E
:102DA0006E652056322E373562657461320A0A46E6
:102DB0007265652052414D3A2025750A00F10004E4
:102DC00000524C4C325352565F500000000000003D
:102DD0000000F1010400524C4C325352565F49003E
:102DE00000000000000000F1020400524C4C32537D
:102DF00052565F440000000000000000F103040090
:102E0000524C4C325352565F494D4158000000001D
:102E100000F200040050544348325352565F5000B1
:102E2000000000000000F2010400505443483253F7
:102E300052565F4900000000000000F202040050FA
:102E4000544348325352565F4400000000000000D3
:102E5000F203040050544348325352565F494D41E7
:102E600058000000006C6F61645F616C6C20746FCF
:102E70006F6B20256C7575730A00646F6E652E008C
:102E80004669726D77617265206368616E67653A45
:102E90002065726173696E6720454550524F4D2E13
:102EA0002E2E0A000A0A20526561647920746F2070
:102EB000464C592E003C737461727475705F677272
:102EC0006F756E643E2047524F554E442053544117
:102ED000525400496E697469616C6973696E672048
:102EE00041504D2E2E2E00040054434F4E5354009B
:102EF0000000000000000000000002000000003F91
:102F0000040150000000000000000000000000006C
:102F10000000000600CDCCCC3E04024400000000BE
:102F20000000000000000000000000000E000AD7B2
:102F3000A33C040349000000000000000000000062
:102F400000000000000A00000000000204524D4191
:102F5000585F555000000000000000000000120003
:102F6000000000000205524D41585F444E00000031
:102F700000000000000000140000000000040652E1
:102F80004C4C0000000000000000000000000000A9
:102F900016000000803F0207494D41580000000024
:102FA0000000000000000000001A000080BB440088
:102FB000FF00000000000000000000000000000012
:102FC0000000000000000000040054434F4E535422
:102FD00000000000000000000000000200000000EF
:102FE0003F0401500000000000000000000000004D
:102FF000000000000600CDCCCC3E040244000000DE
:10300000000000000000000000000000000E000AA8
:10301000D7A33C04034900000000000000000000AA
:103020000000000000000A00000000000204524DF1
:1030300041580000000000000000000000000012E5
:1030400000000000000205494D415800000000004A
:10305000000000000000000014000080BB4400FFDE
:103060000000000000000000000000000000000060
:10307000000000000000000400534C495000000014
:10308000000000000000000000000200000000003E
:103090000401494E54000000000000000000000040
:1030A000000000060000000000040244414D5000F2
:1030B0000000000000000000000000000A00000006
:1030C00000000403524C4C0000000000000000000F
:1030D00000000000000E000000803F0205494D4145
:1030E0005800000000000000000000000000120076
:1030F0000080BB4400FF0000000000000000000052
:103100000000000000000000000000000004024772
:1031100050535F4741494E0000000000000000008E
:1031200024000000803F01034750535F5553450082
:103130000000000000000000002C000000803F04A0
:10314000045941575F5000000000000000000000DB
:1031500000001C009A99993E040552505F500000EF
:10316000000000000000000000000020009A999973
:103170003E010657494E445F4D4158000000000093
:10318000000000002D000000000005085452494DC9
:10319000000000000000000000000000003D0000F2
:1031A00000000001094F5249454E544154494F4EC9
:1031B0000000000000002E0000000000040A434F41
:1031C0004D505F42455441000000000000000028BF
:1031D00000CDCCCC3D010B4750535F4D494E534180
:1031E00054530000000000002F000000C04000FF0A
:1031F00000000000000000000000000000000000CF
:10320000000000000000000100454E41424C450016
:10321000000000000000000000000B000000803FE4
:1032200001015553450000000000000000000000AF
:103230000000000A000000000004024F464653450B
:103240005400000000000000000000000200000028
:1032500000000403524154494F00000000000000E8
:1032600000000000000600492EFF3F010450494EB7
:1032700000000000000000000000000000000C0042
:103280000000000001054155544F43414C0000002F
:10329000000000000000000D000000000000FF0022
:1032A000000000000000000000000000000000001E
:1032B00000000000000004024142535F5052455399
:1032C0005300000000000000000C0000000000049B
:1032D0000354454D500000000000000000000000B5
:1032E00000000800000000000104414C545F4F46FC
:1032F000465345540000000000000010000000008C
:103300000000FF00000000000000000000000000BE
:103310000000000000000000000050414E49433A08
:103320002041505F4261726F3A3A72656164207564
:103330006E7375636365737366756C20666F722058
:103340006D6F7265207468616E203530306D73204A
:10335000696E2041505F4261726F3A3A63616C69F5
:103360006272617465205B335D0D0A0050414E4905
:10337000433A2041505F4261726F3A3A726561642C
:1033800020756E7375636365737366756C20666F05
:1033900072206D6F7265207468616E203530306DFB
:1033A0007320696E2041505F4261726F3A3A6361E7
:1033B0006C696272617465205B325D0D0A00504178
:1033C0004E49433A2041505F4261726F3A3A72650A
:1033D000616420756E7375636365737366756C20C5
:1033E000666F72206D6F7265207468616E20353073
:1033F000306D7320696E2041505F4261726F3A3ABE
:1034000063616C696272617465205B315D0D0A00F5
:1034100050414E49433A2041505F4261726F5F4DC7
:10342000533536313120746F6F6B206D6F726520AC
:103430007468616E20313030306D7320746F206994
:103440006E697469616C697A650050414E49433A0E
:103450002041505F4261726F5F4D53353631313AD2
:10346000206661696C656420746F2074616B6520EF
:1034700073657269616C2073656D6170686F7265E8
:1034800020666F7220696E69740050414E49433A5C
:103490002041505F4261726F5F4D53353631313A92
:1034A000204E554C4C2073657269616C20647269C2
:1034B0007665720050414E49433A206661696C65F9
:1034C0006420746F2074616B65205F6932635F7381
:1034D000656D203130302074696D657320696E2010
:1034E0006120726F772C20696E2041505F426172BB
:1034F0006F5F4D53353631313A3A5F7570646174A0
:10350000650050414E49433A2041505F4261726F1D
:103510005F4D533536313120646964206E6F7420FD
:103520006765742076616C69642049324320736555
:103530006D617068726F65210050414E49433A20B9
:103540006661696C656420746F2074616B65205FCF
:103550007370695F73656D203130302074696D65FB
:103560007320696E206120726F772C20696E204174
:10357000505F4261726F5F4D53353631313A3A5F79
:103580007570646174650050414E49433A20415062
:103590005F4261726F5F4D5335363131206469642B
:1035A000206E6F74206765742076616C69642053A7
:1035B00050492073656D617068726F6521005041DC
:1035C0004E49433A2041505F4261726F5F4D53351F
:1035D00036313120646964206E6F74206765742011
:1035E00076616C696420535049206465766963652F
:1035F0002064726976657221000100545249474780
:103600005F54595045000000000000000000000019
:10361000000001014455524154494F4E0000000042
:10362000000000000001000000204102025345524A
:10363000564F5F4F4E0000000000000000000200E7
:103640000080A2440203534552564F5F4F46460046
:1036500000000000000000040000808944040454BD
:10366000524947475F44495354000000000000009E
:103670000A000000000000FF000000000000000041
:1036800000000000000000000000000000000046F4
:1036900061696C656420746F2067657420484D43D0
:1036A000353834332073656D6170686F726500055D
:1036B000014F465300000000000000000000000021
:1036C0000000110000000000040244454300000017
:1036D00000000000000000000000001D00000000CD
:1036E0000001034C4541524E000000000000000064
:1036F000000000000F000000803F0104555345000A
:103700000000000000000000000000000021000098
:1037100000803F01054155544F44454300000000DF
:1037200000000000000022000000803F01064D4F15
:103730005443540000000000000000000000009E00
:10374000000000000005074D4F540000000000007D
:1037500000000000000000009F00000000000108C1
:103760004F5249454E540000000000000000000088
:1037700000100000000000010945585445524E4118
:103780004C000000000000000000230000000000CA
:1037900000FF00000000000000000000000000002A
:1037A00000000000000000000096918C87827D7868
:1037B000736E69645F5A55504B46413C37322D2831
:1037C000231E19140F0A050004090E13181D2227C1
:1037D0002C31363B40454A4F54595E63686D7277D1
:1037E0007C81868B90959A9FA4A9AEB3AFAAA5A021
:1037F0009B968F89837E78736E69645F5A55504BB0
:1038000047423E3935302C27231F1B16120E09055F
:103810000103070B1014191D22262B2F34393D42AA
:10382000474C51565B60656B70757B80868C9297B8
:103830009DA3A9AFB2ACA6A09A948F827C76706B40
:1038400065605C57524E4A46413D3936322E2A2633
:10385000221F1B1713100C08040102060A0E121671
:103860001A1E22262B2F33383D41464B4F54595EAA
:1038700064696F747A80878D949BA2AAB1AEA69F6B
:10388000979089826F68635E5955514D4946423F12
:103890003C3835322E2B2824211E1A1714100D0AFD
:1038A0000603000306090D1014181C2024282C30D0
:1038B00034393D41464A4F54585D62676D73798093
:1038C000878F98A2ACB0A59A90867D766F55514DA2
:1038D0004A4744413F3C3A383533312E2B29262381
:1038E000201D1A1713100D0A070401010306090D04
:1038F0001013171A1E22262A2E32363A3E42464A04
:103900004E53575B5F64696E757C85909FB2A08D46
:103910007D7067605A553E3C3A3937363433323021
:103920002F2E2C2A292724221F1C191613100D0AAA
:10393000070402000305080A0D1013161A1D21259D
:10394000292D3135383C4043464A4D505356595B3A
:103950005E6165696F826D544D4A474442403E2E18
:103960002E2D2C2C2B2A2A292928272625242321D1
:103970001F1C1A1714100D0A07040101030507097B
:103980000C0E1013161A1D2124282C3033373A3D03
:1039900040424447484A4A4B4A48443D301902167F
:1039A00021282B2D2E2F2E2E06090C0F121517193C
:1039B0001B1C1B1811040E2231383C3C3C3A383594
:1039C000322F2B2824201C1915110D090501020680
:1039D0000A0E1115181C1F222527292A2B2B2926F0
:1039E000211911080004080A0A0A08070402000342
:1039F0000616181A1C1E20211F1712516063625FE1
:103A00005D5956524E4A46423E3935312C282420C3
:103A10001B17130E0A060102060A0F13171B1F239A
:103A2000262A2D313437393C3D3F3F3E3D39352F35
:103A300028211C17151313131416A8ADB2B0ABA68A
:103A4000A19C97928D88837E79746F6A65605B56BE
:103A5000514C47423D38332E29241F1A15100B06AE
:103A60000103080D12171C21262B30353A3F44491B
:103A70004E53585D62676C71767B80858A8F94990E
:103A80009EA3A800000001FFFFE00000000000006E
:103A900001FFFFF000000000000001FFFFF8000040
:103AA0000000000001FFFFFE00000000000003FF17
:103AB000FFFF00000000000003FFFFFFF000000018
:103AC00000000FFFFFFFFE00000003FFFFFC0000EF
:103AD00007FC00007FFFFFFC000000000000001F4B
:103AE000FFFE0000000000241E191512100E0C0B22
:103AF0000A0909090808080706060504040403045E
:103B0000040400000000000000000000272621231C
:103B1000252325242722292A2A1C27282B3332272C
:103B200025222C3331303700000000000000000057
:103B3000008011401140713273343332131211324C
:103B40001112933413145352310021030406080B4D
:103B50002D0A090705040241C011C05112535473C4
:103B600012111251527314733231002102040506EE
:103B700007080908060706240302010200012001C4
:103B80002011C00111003132137413143312F112D9
:103B9000D312510001022325060746442342210087
:103BA00001E0A0313213B4331112110011201100C1
:103BB00052331213321120012224850423040203FC
:103BC00042410001E0A051121413151315341332B1
:103BD0005140012011521332310001222304050407
:103BE000050423010382612001E011801132135486
:103BF0001514333231402102010031723141022368
:103C0000442302012201220102614001A0118051DE
:103C1000121413341514331231400102010302014E
:103C20002052111220212243042241022102A1002C
:103C300001E020114051537413321140210203025C
:103C4000030201001112113200114122232221002E
:103C50004102A1800160116011001132337413120E
:103C600011400162030203213112111211400102BD
:103C70000102030201000100E121E0A01120121164
:103C800073343331200162036240121112110011AA
:103C90000100010201220001200100E1C001001128
:103CA00080110012111312141334522001E2022168
:103CB00020311211001100010021020100014021F8
:103CC0000002410001E0601140111211131214139F
:103CD00014133211002122034201022100010011BC
:103CE000001211001120010041600100C1000140DB
:103CF00011200160114051121312131433123100BC
:103D00000142032201022100014011003100110093
:103D10000100010001A0E10001A001801120315249
:103D20009312110021C22100214031001120110005
:103D3000010001E0E16001E0110011727312310035
:103D400021420301020102202140110011201160D3
:103D50000140116001000102210200012001400127
:103D6000A05132131253321120010201822100218D
:103D7000000100110031E00011001160210001027A
:103D80000102010100212001000160110011521304
:103D9000121413521100418201020001002140114E
:103DA00000110011A0110031001120812201010039
:103DB000020100210001601100521312131413328A
:103DC0003101000201220142010021000100011124
:103DD0002011001120114071001140010221020147
:103DE0000201002102210001000100110012111244
:103DF0003312341332112001020142012201004129
:103E000000016011201100110011005112312061D8
:103E100002012202000201028120110012117334FA
:103E20001332110041020182010061000180110082
:103E300011009132314021420102020062614011C1
:103E40005214135433310041820122000102004117
:103E5000000160911211525120012201030102025E
:103E600000826100513354151433310021020122C4
:103E700003424102A18031921332310041220302F8
:103E80000103002203220102014011123395333154
:103E900001002201034203222122010261000111DB
:103EA0000011521312531231004122032203002346
:103EB00002030201022120321314161517161533BE
:103EC0001120016203020302032201A241401112E8
:103ED00053141314133211010002010203020302EE
:103EE000020002230203222120321416371817156C
:103EF0001312110021220302430243010302038231
:103F000021201112131415341514321100016223EB
:103F100002030043020342012012131518193A1735
:103F200015131100210203026304E30203020302DA
:103F300001024012131415171516341220212243C2
:103F4000020300A3220100111215181C1E1D1916D0
:103F50001311000201030203042304032403044396
:103F600004230403020342201112141517183615F6
:103F7000133121020302230203245047434D442CF2
:103F800031362C302C302C302C302C302A36410D50
:103F90000A0024505352463130302C302C33383400
:103FA00030302C382C312C302A334300204E4D45F4
:103FB00041200020534952462000204D544B200000
:103FC000204D544B313920002075626C6F782000F1
:103FD0000096000000E1000080250000C0120000F3
:103FE0004F4B0024505352463130332C302C302C60
:103FF000312C312A32350D0A245053524631303398
:104000002C312C302C302C312A32350D0A245053CF
:1040100052463130332C322C302C302C312A32366F
:104020000D0A24505352463130332C332C302C306F
:104030002C312A32370D0A24505352463130332C5A
:10404000342C302C312C312A32300D0A245053526A
:10405000463130332C352C302C312C312A32300D76
:104060000A24505352463130332C362C302C302C0D
:10407000312A32320D0A24505352463130332C3813
:104080002C302C302C312A32430D0A245053524606
:104090003135312C312A33460D0A245053524631E2
:1040A00030362C32312A30460D0A0024504D544B04
:1040B0003331342C302C302C312C312C302C302C12
:1040C000302C302C302C302C302C302C302C302C10
:1040D000302C302C302A32380D0A24504D544B33BA
:1040E00033302C302A32450D0A24504D544B333195
:1040F000332C312A32450D0A24504D544B33303184
:104100002C322A32450D0A0024505542582C3430A6
:104110002C6767612C302C312C302C302C302C301B
:104120002A37420D0A24505542582C34302C7674CC
:10413000672C302C312C302C302C302C302A374648
:104140000D0A24505542582C34302C726D632C309B
:104150002C302C302C302C302C302A36370D0A00E5
:104160004750524D4300475047474100475056542F
:104170004700A0A20008A60200000000000000A85E
:10418000B0B3A0A20008A60029010000000000D0E2
:10419000B0B3B56206010300010601124F24505569
:1041A00042582C34312C312C303030332C303030DC
:1041B000312C33383430302C302A32360D0A004559
:1041C00072726F723A2041505F48414C5F415652C3
:1041D0003A3A415652416E616C6F67496E206F7575
:1041E00074206F66206368616E6E656C730D0A00E3
:1041F000474F494E4720444F574E20464F5220418B
:10420000205245424F4F540D0A0050414E49433A07
:10421000207363686564756C65723A3A7379737478
:10422000656D5F696E697469616C697A6564206344
:10423000616C6C65646D6F7265207468616E206F6F
:104240006E63650050414E49433A204156525365D2
:104250006D6170686F72653A3A74616B6520757351
:1042600065642066726F6D20696E73696465207481
:10427000696D65722070726F636573730050414E93
:1042800049433A205350493020777269746520635E
:104290006F6C6C6973696F6E0050414E49433A20F0
:1042A00053504930207472616E7366657220636F7B
:1042B0006C6C6973696F6E00020050524F44554335
:1042C000545F4944000000000000001A0000000094
:1042D0000005014143435343414C000000000000EE
:1042E000000000001C000000000005024143434F95
:1042F00046465300000000000000000000280000B7
:1043000000000005034759524F4646530000000085
:1043100000000000000034000000000001044D50C7
:1043200055364B5F46494C54455200000000004052
:10433000000000000000FF0000000000000000007E
:1043400000000000000000000000000000004361C9
:104350006C6962726174696F6E204641494C4544D4
:104360000A0043616C6962726174696F6E207375D3
:10437000636365737366756C0A005363616C696E81
:10438000673A20252E326620252E326620252E32D1
:10439000660A004F6666736574733A20252E32668E
:1043A00020252E326620252E32660A00506C61636D
:1043B000652041504D20255320616E642070726548
:1043C000737320616E79206B65792E0A006F6E2001
:1043D000697473204241434B006E6F7365205550E2
:1043E000006E6F736520444F574E006F6E206974E6
:1043F000732052494748542073696465006F6E20EA
:10440000697473204C4546542073696465006C657B
:1044100076656C0020002A00496E69742041636350
:10442000656C000A6779726F20646964206E6F742E
:1044300020636F6E76657267653A20646966663DD3
:104440002566206470730A002A00496E697420474B
:1044500079726F00FB00003E000B00360001000285
:104460000003000000650054FFEF0000FA80000B1D
:1044700012820001000200000000000000000000A5
:104480000000000000280000FFFF4581FFFFFA72D6
:1044900000000000000003E80000000100017FFFB1
:1044A000FFFE8001001B0000000000000000000073
:1044B00000000000003E03304000000002CAE30993
:1044C0003E800000200000000000000040000000CE
:1044D0006000000041FF000000000B2A000016559C
:1044E00000002182FD872650FD800000001F000093
:1044F0000005800000000000000100000002000034
:1045000000030000400000000000046F000265325C
:1045100000005EC04000000000000000000000003D
:1045200000000000FB8C6F5DFD5D08D9007C733BD3
:10453000006C12CC3200139D3200D0D6320008003D
:10454000400001F4FFE68079020000000000D0D6B0
:1045500000002710FB0000004000000000000000E9
:104560000000000000000001000000000000010049
:10457000010000000000FA36FFBC308E0005FBF0A1
:10458000FFD95BC8FFD09ABE000010A9FFF41EB28D
:1045900000CEBBF700000001000000040002000292
:1045A0000200000CFFC280000001800000CF8000EC
:1045B00040000000000000010000000000000600B4
:1045C00000000014000000000000000000000000D7
:1045D00000000000000000000000000000000000DB
:1045E00000000000000000000000000000000000CB
:1045F0000000000000000000033F68B6793528BCC9
:10460000C67ED16C80000000400000000000B26A4D
:1046100000000000000000000000000000003FF06B
:10462000000000300000000000000000000000005A
:10463000000000000000000000000000000000007A
:10464000000000000000254D002F706D000005AE39
:10465000000C02D00000000000650054FFEF0000D5
:1046600000000000000001000044000000000C00F9
:104670000000010000000000006500000054000080
:10468000FFEF00000000000000000000000000003C
:1046900000000000400000000000000000000000DA
:1046A00000000000400000000000000000000000CA
:1046B00000000000000000010000000200000000F7
:1046C00000000000000000000000000000000000EA
:1046D00000000000000000000000000000000000DA
:1046E00000000000001B00000000000000000000AF
:1046F00000000000000000000000000000000000BA
:1047000000000000000000000000000000000000A9
:1047100040000000001B000000000000000000003E
:104720000000000000000000000000000000000089
:104730000000000000000000000000000000000079
:104740000000000000000000000000000000000069
:1047500000000000D8DCBAA2F1DEB2B8B4A88191A2
:10476000F74A907F916AF3F9DBA8F9B0BAA080F21A
:10477000CE81F3C2F1C1F2C3F3CCA2B280F1C6D8AC
:1047800080BAA7DFDFDFF2A7C3CBC5B6F087A2945C
:104790002448703C95406834589B78A2F183922D50
:1047A000557DD8B1B4B8A1D09180F270F370F27C8D
:1047B00080A8F101B09887D943D886C988BAA1F2F8
:1047C0000EB89780F1A9DFDFDFAADFDFDFF2AAC52D
:1047D000CDC7A90CC92C97979797F1A9892646664A
:1047E000B0B4BA80ACDEF2CAF1B28C02A9B69800BD
:1047F000890E161EB8A9B4992C547CB08AA8963696
:104800005676F1B9AFB4B083C0B8A89711B18F98FC
:10481000B9AFF0240844106418F1A329557DAF8383
:10482000B593AFF0002850F1A3869F61A6DADEDFD2
:10483000D9FAA38696DB31A6D9F8DFBAA68FC2C50E
:10484000C7B28CC1B8A2DFDFDFA3DFDFDFD8D8F1CA
:10485000B8A8B286B4980D355DB8AA98B0872D3542
:104860003DB2B6BAAF8C96198F9FA70E161EB49A9A
:10487000B8AA872C547CB9A3DEDFDFA3B180F2C4D1
:10488000CDC9F1B8A9B499830D355D89B9A32D556A
:104890007DB593A30E161EA92C547CB8B4B0F19725
:1048A00083A81184A50998A383F0DA24084410642E
:1048B00018D8F1A529557DA58595021A2E3A565A84
:1048C0004048F9F3A3D9F8F09883240844106418F9
:1048D0009782A8F111F098A2240844106418DAF322
:1048E000DED883A59401D9A302F1A2C3C5C7D8F12C
:1048F0008492A24DDA2AD84869D92AD86855DA3282
:10490000D85071D932D8705DDA3AD85879D93AD8B6
:104910007893A34DDA2AD84869D92AD86855DA326B
:10492000D85071D932D8705DDA3AD85879D93AD896
:1049300078A88A9AF02850789EF38818F19F1D98DD
:10494000A8D908D8C89F129EF315A8DA1210D8F17A
:10495000AFC8978734B5B994A421F3D922D8F22DE2
:10496000F3D92AD8F235F3D932D881A4606061D95D
:1049700061D86C6869D969D8747071D971D8B1A3DC
:1049800084193D5DA3831A3E5E931030811011B8E7
:10499000B0AF8F94F2DA3ED8B49AA88729DAF8D863
:1049A000879A35DAF8D8879A3DDAF8D8B1B9A49859
:1049B00085022E56A581000C14A397B08AF12DD93B
:1049C00028D84DD948D86DD968D8B1840DDA0ED819
:1049D000A32983DA2C0ED8A3844983DA2C4C0ED871
:1049E000B8B0A88A9AF520AADADFD8A840AAD0DA07
:1049F000DED8A860AADAD0DFD8F19786A8319B0666
:104A00009907AB9728889BF00C201440B8B0B4A845
:104A10008C9CF0042851791D301438B282ABD098A8
:104A20002C505078789BF11AB0F08A9CA8295179C3
:104A30008B2951798A2470598B2058718A4469389E
:104A40008B3940688A6448318B304960A5882009D9
:104A500071584468113964493019F1AC002C547C08
:104A6000F08CA804285078F1889726A85998AC8C27
:104A700002264666F0899CA8295179247059446918
:104A800038644831A98809205970AB11384069A8A9
:104A9000193148608CA83C415C207C00F187981952
:104AA00086A86E767EA999882D557D9EB9A38A2207
:104AB0008A6E8A568A5E9FB183062646660E2E4E01
:104AC0006E9DB8AD002C547CF2B18CB499B9A32D75
:104AD000557D8191AC38AD3AB58391AC2DD928D8AC
:104AE0004DD948D86DD968D88C9DAE29D904AED897
:104AF00051D904AED879D904D881F39DAD008DAEDB
:104B00001981ADD901D8F2AEDA26D88E912983A7C2
:104B1000D9ADADADADF32AD8D8F1B0AC89913E5E38
:104B200076F3AC2E2EF1B18C5A9CAC2C2828289C04
:104B3000AC3018A8988128343C9724A728343C9C92
:104B400024F2B089AC912C4C6C8A9B2DD9D8D851C9
:104B5000D9D8D879D9D8D8F19E88A331DAD8D891C4
:104B60002DD928D84DD948D86DD968D8B183933577
:104B70003D8025DAD8D88569DAD8D8B49381A328BE
:104B8000343CF3AB8BF8A391B609B4D9ABDEFAB0E1
:104B9000879CB9A3DDF1A3A3A3A395F1A3A3A39D30
:104BA000F1A3A3A3A3F2A3B49080F2A3A3A3A3A30E
:104BB000A3A3A3A3A3B2A3A3A3A3A3A3B087B599BD
:104BC000F1A3A3A398F1A3A3A3A397A3A3A3A3F3E0
:104BD0009BA3A3DCB9A7F1262626D8D8FF000000A6
:104BE00000000000000000000000000000000000C5
:104BF00000000000000000000000000000000000B5
:104C000000000000000000000000000000000000A4
:104C10000000000000000000000000000000000094
:104C20000000000000000000000000000000000084
:104C30000000000000000000000000000000000074
:104C40000000000000000000000000000000000064
:104C5000000000004661696C656420746F20626F1B
:104C60006F74204D50553630303020352074696DCA
:104C70006573004D5055363030303A20556E6162C4
:104C80006C6520746F206765742073656D61706852
:104C90006F72650050414E49433A206661696C6508
:104CA0006420746F2074616B6520535049207365D4
:104CB0006D6170686F7265203130302074696D6588
:104CC0007320696E2041505F496E65727469616C32
:104CD00053656E736F725F4D5055363030303A3ACF
:104CE0005F726561645F646174615F66726F6D5F5E
:104CF00074696D657270726F636573730050414EB5
:104D000049433A2041505F496E65727469616C5342
:104D1000656E736F725F4D5055363030303A3A5F82
:104D2000706F6C6C5F64617461206661696C65644E
:104D300020746F2074616B65205350492073656D3A
:104D40006170686F72652073796E6368726F6E6FE1
:104D500075736C790050414E49433A2041505F4988
:104D60006E65727469616C53656E736F725F4D50DE
:104D700055363030303A3A5F646174615F72656114
:104D80006479206661696C656420746F2074616B5E
:104D900065205350492073656D6170686F7265209E
:104DA00073796E6368726F6E6F75736C79005041C2
:104DB0004E49433A2041505F496E65727469616C97
:104DC00053656E736F725F4D5055363030303A3ADE
:104DD000757064617465207761697465642035302D
:104DE0006D7320666F7220646174612066726F6DEE
:104DF00020696E746572727570740050414E49433B
:104E00003A206661696C656420746F20626F6F740C
:104E1000204D50553630303020352074696D657323
:104E2000004D505536303030207374617274757097
:104E3000206661696C65643A206E6F2064617461FC
:104E40002072656164790054696D6564206F7574C2
:104E50002077616974696E6720666F72207573656B
:104E60007220726573706F6E736500040050455256
:104E7000494F4400000000000000000000001D0039
:104E80000000C841040144414D50494E4700000014
:104E90000000000000000021000000403F00FF0073
:104EA0000000000000000000000000000000000002
:104EB000000000000000256C642E2530376C640073
:104EC0002D00202025530A00436F6D6D616E6473C1
:104ED0003A00496E76616C696420636F6D6D616E36
:104EE000642C2074797065202768656C70270065D4
:104EF0007869740068656C700025535D20000100BE
:104F00004D4F44450000000000000000000000007C
:104F10000036000000000005015245545241435440
:104F2000000000000000000000004700000000003A
:104F300005024E45555452414C000000000000004F
:104F40000000005300000000000503434F4E545280
:104F50004F4C000000000000000000005F00000057
:104F600000000104535441425F524F4C4C0000007A
:104F70000000000000330000000000010553544110
:104F8000425F54494C54000000000000000034000F
:104F9000000000000106535441425F50414E0000A2
:104FA0000000000000000035000000000001075272
:104FB000435F494E5F524F4C4C0000000000000020
:104FC0003700000000000208414E474D494E5F5235
:104FD0004F4C000000000000003A0000A08CC50209
:104FE00009414E474D41585F524F4C0000000000B0
:104FF00000003C0000A08C45010A52435F494E5F0F
:1050000054494C540000000000000038000000002B
:1050100000020B414E474D494E5F54494C00000081
:10502000000000003E0000A08CC5020C414E474D20
:1050300041585F54494C000000000000004000004F
:10504000A08C45010D52435F494E5F50414E000018
:10505000000000000000390000000000020E414E78
:10506000474D494E5F50414E000000000000004295
:105070000000A08CC5020F414E474D41585F504182
:105080004E00000000000000440000A08C4501100C
:105090004A535449434B5F53504400000000000002
:1050A0000046000000000000FF00000000000000BB
:1050B00000000000000000000000000000000000F0
:1050C00042616420636F6E76657273696F6E2074DF
:1050D00079706520272553270A00556E6B6E6F7710
:1050E0006E20636F6E76657273696F6E202725532D
:1050F000270A0025733A2025660A0025733A2025E1
:105100006C640A0025733A2025640A0025733A204E
:1051100025640A00454550524F4D2066756C6C0061
:105120000100524F4C4C0000000000000000000045
:1051300000000000000000803F0101504954434836
:10514000000000000000000000000000010000005E
:10515000004001025448524F54544C450000000096
:1051600000000000000300000040400103594157C7
:10517000000000000000000000000000000002002D
:105180000000804000FF0000000000000000000060
:1051900000000000000000000000000000010050BE
:1051A000494E000000000000000000000000000068
:1051B00000000000504100FF00000000000000005F
:1051C00000000000000000000000000000000001DE
:1051D0000044454255470000000000000000000068
:1051E000000000000000000000FF000000000000C0
:1051F00000000000000000000000000000000000AF
:10520000005363686564756C6572206F76657272B1
:10521000756E207461736B5B25755D202825752F75
:105220002575290A005363686564756C657220737F
:105230006C6970207461736B5B25755D2028257522
:105240002F25752F2575290A000400434C4D425F18
:105250004D41580000000000000000004D0000001B
:10526000A040040153494E4B5F4D494E00000000E1
:105270000000000000510000000040040254494DAD
:10528000455F434F4E53540000000000000059009A
:105290000000A04004035448525F44414D500000B8
:1052A0000000000000000061000000003F0404490D
:1052B0004E5445475F4741494E0000000000000042
:1052C0006500CDCCCC3D0405564552545F41434367
:1052D00000000000000000000069000000E0400441
:1052E000064847545F4F4D4547410000000000000D
:1052F000000045000000404004075350445F4F4DFC
:105300004547410000000000000000490000000087
:10531000400408524C4C3254485200000000000037
:10532000000000006D000000204104095350445764
:10533000454947485400000000000000007100008B
:1053400000803F040A505443485F44414D500000E0
:105350000000000000005D0000000000040B534945
:105360004E4B5F4D4158000000000000000000550A
:10537000000000A04000FF0000000000000000004E
:10538000000000000000000000000000000050418C
:105390004E49433A2044617461466C6173682053FE
:1053A0005049446576696365447269766572207315
:1053B000656D6170686F7265206973206E756C6CC5
:1053C0000050414E49433A2044617461466C617318
:1053D000682053504944657669636544726976650F
:1053E00072206E6F7420666F756E64004C6F67205C
:1053F00025752C2020202073746172742025752C53
:10540000202020656E642025750A000A2575206C11
:105410006F67730A000A4E6F206C6F67730A0A0089
:105420004E756D50616765733A2025752020506177
:10543000676553697A653A2025750A004D616E7576
:1054400066616374757265723A20307825303278FF
:105450002020204465766963653A20307825303411
:10546000780A004E6F2064617461666C6173682015
:10547000696E7365727465640025750A0025752C64
:105480000900444620706167652C206C6F672066B8
:10549000696C6520232C206C6F6720706167653A0A
:1054A0002025752C09002C2000257300257300256C
:1054B0007300252E326600252E326600252E3266B8
:1054C00000252E326600256600256C7500256C646B
:1054D0000025750025640025750025640025532CE2
:1054E0002000554E4B4E2C2025750A00327C890039
:1054F000EDD96877000000590000000000000000AE
:10550000D69FDCA81817AA90437327F6B968EDF464
:10551000DED409FEE61C1C84DDE80B992927D6DFC2
:105520008D210F036418EFEE1EF0B78282009415F0
:1055300000F37C0000001400988F00007F6A0000D8
:105540000000000000E7B73F360000000000000048
:10555000AF669ED0385DD36C20B9EB5D7C7C770460
:10556000000000000000000000000000000000003B
:105570000000000000000000000000000000002A01
:10558000F10F86DBD0BC5416131586004E44BD7F48
:105590009A15159001EA49B51653A70000000000BE
:1055A00000000000000000000000000000000000FB
:1055B00000000000000000000000000000000000EB
:1055C00000000000000000000000000000000000DB
:1055D00000000000000000000000000000000000CB
:1055E0000000000000CC31AA2C532E000400500013
:1055F00000000000000000000000000000000000AB
:10560000000000000004014900000000000000004C
:105610000000000000000000040000000000040280
:105620004400000000000000000000000000000036
:10563000000800000000000203494D41580000002E
:10564000000000000000000000000C00000000004E
:1056500000FF00000000000000000000000000004B
:105660000000000000000000000800000000000032
:105670000000000000000000000000000000B45620
:105680000000010146554E4354494F4E00000000B2
:1056900000000000001D000000000000FF000000EE
:1056A00000000000000000000000000000000000FA
:1056B0000000000002004D494E0000000000000004
:1056C000000000000000000A00008089440201542C
:1056D00052494D00000000000000000000000000E2
:1056E0000C000080BB4402024D4158000000000045
:1056F0000000000000000000000E000080ED4401EA
:1057000003524556000000000000000000000000A9
:10571000000010000000803F0205445A0000000015
:105720000000000000000000000000110000000068
:105730000000FF000000000000000000000000006A
:10574000000000000000000000006E616E00696E45
:10575000660000002100240027002A002D003000F0
:10576000330001010000040107010A0100002200CA
:10577000250028002B002E0031003400020100001B
:10578000050108010B01000020002300260029006C
:105790002C002F0032000001000003010601090166
:1057A00005050505070508080808020202020A0A9D
:1057B00008080404040401010101010101010303BB
:1057C000030303030303040707070C0C0C0C0C0C66
:1057D0000C0C0202020206060606060606060B0B63
:1057E0000B0B0B0B0B0B05010210202008081020DF
:1057F000401020408002010201080402010102045D
:10580000081020408080402010080402018004021B
:105810000180402010080402010804020101020472
:105820000810204080010204081020408040000041
:10583000090A02080B0C0D07060304010000000012
:105840000000000000000000000000000000000058
:105850000000000000000000000011100F00000018
:105860000000000000000000000000000000000038
:10587000000000000000407A10F35A00A0724E1899
:10588000090010A5D4E80000E87648170000E40BF2
:1058900054020000CA9A3B000000E1F505000080B8
:1058A000969800000040420F000000A08601000012
:1058B00000102700000000E8030000000064000062
:1058C0000000000A00000000000100000000002CA1
:1058D00076D888DC674F0823DFC1DFAE59E1B1B766
:1058E00096E5E3E453C63AE651997696E8E6C28433
:1058F00026EB898C9B62ED407C6FFCEFBC9C9F404B
:10590000F2BAA56FA5F490055A2AF75C936B6CF96F
:10591000676DC11BFCE0E40D47FEF520E6B500D045
:10592000ED902E0300943577050080841E0800005A
:10593000204E0A000000C80C333333330F986E1228
:10594000831141EF8D2114893BE65516CFFEE6DB2E
:1059500018D1844B381BF77C1D901DA4BBE4242078
:105960003284725E228100C9F124ECA1E53D274911
:105970004E46494E4954594E414ECDCCCC3D0AD7A6
:10598000233C17B7D13877CC2B329595E6241FB13D
:105990004F0A000020410000C84200401C4620BCC5
:1059A000BE4CCA1B0E5AAEC59D740D94341B0D948B
:1059B000790B0D9411210D94449B0D9441860D9407
:1059C00039570D94AC1E0D942CA10D941E0E0D9400
:1059D000AF210D9480190D9434490D944C020D940F
:1059E000A8580D944F540D9406170D94B5930D942B
:1059F000224F0D945C050D947E9B0D94AC180D9474
:105A0000DD570D94D33A0D946F210D9496A50D9406
:105A1000B59D0D94B21F0D94DE1A0D94F2720D9483
:105A200082190D946D6E0D947B070D94B8050D943D
:105A3000B1380D941C9B0D9473170D9451210D9446
:105A4000C40D0D94165C0D94681E0D94537D0D9439
:105A5000E6180D9462030D94F7060D9469760D9483
:105A600007220D948DA90D94021F0D940A470D94E1
:105A70008E1E0D94EB170D9476560D94CA050D9459
:105A80002AA30D94E6150D94379C0D941C1D0D94BE
:105A9000CB900D94A2070D944A930D94021E0D9481
:105AA0000F170D9439120D94309D0D94991F0D947C
:105AB00040170D948D9A0D9490150D947E250D949C
:105AC000695C0D9447170D940E180D9435120D94C2
:105AD00078250D9442020D94A98C0D949C740D941C
